{
  "contractName": "HealthIntegrityLedger",
  "abi": [
    {
      "anonymous": false,
      "inputs": [
        {
          "indexed": true,
          "internalType": "address",
          "name": "user",
          "type": "address"
        },
        {
          "indexed": false,
          "internalType": "string",
          "name": "dataHash",
          "type": "string"
        },
        {
          "indexed": false,
          "internalType": "uint256",
          "name": "versionNo",
          "type": "uint256"
        },
        {
          "indexed": false,
          "internalType": "uint256",
          "name": "timestamp",
          "type": "uint256"
        }
      ],
      "name": "DataHashStored",
      "type": "event"
    },
    {
      "anonymous": false,
      "inputs": [
        {
          "indexed": true,
          "internalType": "address",
          "name": "user",
          "type": "address"
        },
        {
          "indexed": false,
          "internalType": "string",
          "name": "identityHash",
          "type": "string"
        },
        {
          "indexed": false,
          "internalType": "uint256",
          "name": "versionNo",
          "type": "uint256"
        },
        {
          "indexed": false,
          "internalType": "uint256",
          "name": "timestamp",
          "type": "uint256"
        }
      ],
      "name": "IdentityHashStored",
      "type": "event"
    },
    {
      "anonymous": false,
      "inputs": [
        {
          "indexed": true,
          "internalType": "address",
          "name": "user",
          "type": "address"
        },
        {
          "indexed": false,
          "internalType": "string",
          "name": "payloadHash",
          "type": "string"
        },
        {
          "indexed": false,
          "internalType": "uint256",
          "name": "versionNo",
          "type": "uint256"
        },
        {
          "indexed": false,
          "internalType": "uint256",
          "name": "timestamp",
          "type": "uint256"
        }
      ],
      "name": "PayloadHashStored",
      "type": "event"
    },
    {
      "inputs": [
        {
          "internalType": "string",
          "name": "dataHash",
          "type": "string"
        }
      ],
      "name": "storeDataHash",
      "outputs": [],
      "stateMutability": "nonpayable",
      "type": "function"
    },
    {
      "inputs": [
        {
          "internalType": "string",
          "name": "payloadHash",
          "type": "string"
        }
      ],
      "name": "storePayloadHash",
      "outputs": [],
      "stateMutability": "nonpayable",
      "type": "function"
    },
    {
      "inputs": [
        {
          "internalType": "string",
          "name": "identityHash",
          "type": "string"
        }
      ],
      "name": "storeIdentityHash",
      "outputs": [],
      "stateMutability": "nonpayable",
      "type": "function"
    },
    {
      "inputs": [
        {
          "internalType": "string",
          "name": "_recordHash",
          "type": "string"
        }
      ],
      "name": "storeRecord",
      "outputs": [],
      "stateMutability": "nonpayable",
      "type": "function"
    },
    {
      "inputs": [
        {
          "internalType": "address",
          "name": "_user",
          "type": "address"
        }
      ],
      "name": "getRecords",
      "outputs": [
        {
          "components": [
            {
              "internalType": "uint256",
              "name": "versionNo",
              "type": "uint256"
            },
            {
              "internalType": "string",
              "name": "recordHash",
              "type": "string"
            },
            {
              "internalType": "address",
              "name": "updatedBy",
              "type": "address"
            },
            {
              "internalType": "uint256",
              "name": "timestamp",
              "type": "uint256"
            }
          ],
          "internalType": "struct HealthIntegrityLedger.RecordEntry[]",
          "name": "",
          "type": "tuple[]"
        }
      ],
      "stateMutability": "view",
      "type": "function",
      "constant": true
    },
    {
      "inputs": [
        {
          "internalType": "address",
          "name": "_user",
          "type": "address"
        }
      ],
      "name": "getLatestRecord",
      "outputs": [
        {
          "components": [
            {
              "internalType": "uint256",
              "name": "versionNo",
              "type": "uint256"
            },
            {
              "internalType": "string",
              "name": "recordHash",
              "type": "string"
            },
            {
              "internalType": "address",
              "name": "updatedBy",
              "type": "address"
            },
            {
              "internalType": "uint256",
              "name": "timestamp",
              "type": "uint256"
            }
          ],
          "internalType": "struct HealthIntegrityLedger.RecordEntry",
          "name": "",
          "type": "tuple"
        }
      ],
      "stateMutability": "view",
      "type": "function",
      "constant": true
    },
    {
      "inputs": [
        {
          "internalType": "address",
          "name": "_user",
          "type": "address"
        }
      ],
      "name": "getLatestVersion",
      "outputs": [
        {
          "internalType": "uint256",
          "name": "",
          "type": "uint256"
        }
      ],
      "stateMutability": "view",
      "type": "function",
      "constant": true
    },
    {
      "inputs": [
        {
          "internalType": "address",
          "name": "_user",
          "type": "address"
        }
      ],
      "name": "getRecordCount",
      "outputs": [
        {
          "internalType": "uint256",
          "name": "",
          "type": "uint256"
        }
      ],
      "stateMutability": "view",
      "type": "function",
      "constant": true
    }
  ],
  "bytecode": "0x608060405234801561001057600080fd5b50610a93806100206000396000f3fe608060405234801561001057600080fd5b50600436106100885760003560e01c80636fcd01af1161005b5780636fcd01af1461012b57806376d91d081461012b578063a0076e841461013e578063d10d0d021461015e57600080fd5b80632f63bd6a1461008d5780634c5fb7f9146100b657806350abe910146100cb5780635821430814610102575b600080fd5b6100a061009b366004610685565b610171565b6040516100ad9190610742565b60405180910390f35b6100c96100c436600461076b565b6102fd565b005b6100f46100d9366004610685565b6001600160a01b031660009081526001602052604090205490565b6040519081526020016100ad565b6100f4610110366004610685565b6001600160a01b031660009081526020819052604090205490565b6100c961013936600461076b565b610357565b61015161014c366004610685565b6103a4565b6040516100ad919061081c565b6100c961016c36600461076b565b61056d565b6101a56040518060800160405280600081526020016060815260200160006001600160a01b03168152602001600081525090565b6001600160a01b038216600090815260208190526040902080546102035760405162461bcd60e51b8152602060048201526011602482015270139bc81c9958dbdc991cc81cdd1bdc9959607a1b604482015260640160405180910390fd5b8054819061021390600190610894565b81548110610223576102236108ad565b906000526020600020906004020160405180608001604052908160008201548152602001600182018054610256906108c3565b80601f0160208091040260200160405190810160405280929190818152602001828054610282906108c3565b80156102cf5780601f106102a4576101008083540402835291602001916102cf565b820191906000526020600020905b8154815290600101906020018083116102b257829003601f168201915b505050918352505060028201546001600160a01b031660208201526003909101546040909101529392505050565b600080610309836105ba565b91509150336001600160a01b03167fa63b2eaae700b99e2c9539dd36b1a489a4f47ea894bfb7e6605cffe3826c5c7084848460405161034a939291906108fd565b60405180910390a2505050565b600080610363836105ba565b91509150336001600160a01b03167fc87f580c4e329533e44af266799ff724ef8a6bfaa9014d66d6ef5ed6074fc1c184848460405161034a939291906108fd565b6001600160a01b038116600090815260208190526040812080546060929067ffffffffffffffff8111156103da576103da610755565b60405190808252806020026020018201604052801561043f57816020015b61042c6040518060800160405280600081526020016060815260200160006001600160a01b03168152602001600081525090565b8152602001906001900390816103f85790505b50905060005b825481101561056557828181548110610460576104606108ad565b906000526020600020906004020160405180608001604052908160008201548152602001600182018054610493906108c3565b80601f01602080910402602001604051908101604052809291908181526020018280546104bf906108c3565b801561050c5780601f106104e15761010080835404028352916020019161050c565b820191906000526020600020905b8154815290600101906020018083116104ef57829003601f168201915b505050918352505060028201546001600160a01b031660208201526003909101546040909101528251839083908110610547576105476108ad565b6020026020010181905250808061055d90610922565b915050610445565b509392505050565b600080610579836105ba565b91509150336001600160a01b03167f76097815fdd9615ab5b972c13af83a6438c6f881900f09693dd69338b30b554c84848460405161034a939291906108fd565b33600090815260016020819052604082205482916105d8919061093b565b3360008181526020818152604080832081516080810183528681528084018a8152928101959095524260608601819052815460018181018455928652939094208551600490940201928355905194965091945091929082019061063b908261099d565b506040828101516002830180546001600160a01b0319166001600160a01b039092169190911790556060909201516003909101553360009081526001602052208290559092909150565b60006020828403121561069757600080fd5b81356001600160a01b03811681146106ae57600080fd5b9392505050565b6000815180845260005b818110156106db576020818501810151868301820152016106bf565b506000602082860101526020601f19601f83011685010191505092915050565b80518252600060208201516080602085015261071a60808501826106b5565b6040848101516001600160a01b03169086015260609384015193909401929092525090919050565b6020815260006106ae60208301846106fb565b634e487b7160e01b600052604160045260246000fd5b60006020828403121561077d57600080fd5b813567ffffffffffffffff8082111561079557600080fd5b818401915084601f8301126107a957600080fd5b8135818111156107bb576107bb610755565b604051601f8201601f19908116603f011681019083821181831017156107e3576107e3610755565b816040528281528760208487010111156107fc57600080fd5b826020860160208301376000928101602001929092525095945050505050565b6000602080830181845280855180835260408601915060408160051b870101925083870160005b8281101561087157603f1988860301845261085f8583516106fb565b94509285019290850190600101610843565b5092979650505050505050565b634e487b7160e01b600052601160045260246000fd5b818103818111156108a7576108a761087e565b92915050565b634e487b7160e01b600052603260045260246000fd5b600181811c908216806108d757607f821691505b6020821081036108f757634e487b7160e01b600052602260045260246000fd5b50919050565b60608152600061091060608301866106b5565b60208301949094525060400152919050565b6000600182016109345761093461087e565b5060010190565b808201808211156108a7576108a761087e565b601f82111561099857600081815260208120601f850160051c810160208610156109755750805b601f850160051c820191505b8181101561099457828155600101610981565b5050505b505050565b815167ffffffffffffffff8111156109b7576109b7610755565b6109cb816109c584546108c3565b8461094e565b602080601f831160018114610a0057600084156109e85750858301515b600019600386901b1c1916600185901b178555610994565b600085815260208120601f198616915b82811015610a2f57888601518255948401946001909101908401610a10565b5085821015610a4d5787850151600019600388901b60f8161c191681555b5050505050600190811b0190555056fea2646970667358221220abeee6694f8491d8ec22a379ce1ad04534c70b9019696327155c84bcebf28f8b64736f6c63430008130033",
  "immutableReferences": {},
  "source": "// SPDX-License-Identifier: MIT\npragma solidity ^0.8.19;\n\ncontract HealthIntegrityLedger {\n    struct RecordEntry {\n        uint256 versionNo;\n        string recordHash;\n        address updatedBy;\n        uint256 timestamp;\n    }\n\n    mapping(address => RecordEntry[]) private _records;\n    mapping(address => uint256) private _latestVersion;\n\n    event DataHashStored(\n        address indexed user,\n        string dataHash,\n        uint256 versionNo,\n        uint256 timestamp\n    );\n\n    event PayloadHashStored(\n        address indexed user,\n        string payloadHash,\n        uint256 versionNo,\n        uint256 timestamp\n    );\n\n    event IdentityHashStored(\n        address indexed user,\n        string identityHash,\n        uint256 versionNo,\n        uint256 timestamp\n    );\n\n    function _storeHash(string memory _hashValue) private returns (uint256 newVersion, uint256 ts) {\n        newVersion = _latestVersion[msg.sender] + 1;\n        ts = block.timestamp;\n\n        _records[msg.sender].push(\n            RecordEntry({\n                versionNo: newVersion,\n                recordHash: _hashValue,\n                updatedBy: msg.sender,\n                timestamp: ts\n            })\n        );\n\n        _latestVersion[msg.sender] = newVersion;\n    }\n\n    function storeDataHash(string memory dataHash) external {\n        (uint256 newVersion, uint256 ts) = _storeHash(dataHash);\n        emit DataHashStored(msg.sender, dataHash, newVersion, ts);\n    }\n\n    function storePayloadHash(string memory payloadHash) external {\n        (uint256 newVersion, uint256 ts) = _storeHash(payloadHash);\n        emit PayloadHashStored(msg.sender, payloadHash, newVersion, ts);\n    }\n\n    function storeIdentityHash(string memory identityHash) external {\n        (uint256 newVersion, uint256 ts) = _storeHash(identityHash);\n        emit IdentityHashStored(msg.sender, identityHash, newVersion, ts);\n    }\n\n    function storeRecord(string memory _recordHash) external {\n        (uint256 newVersion, uint256 ts) = _storeHash(_recordHash);\n        emit PayloadHashStored(msg.sender, _recordHash, newVersion, ts);\n    }\n\n    function getRecords(address _user) external view returns (RecordEntry[] memory) {\n        RecordEntry[] storage stored = _records[_user];\n        RecordEntry[] memory result = new RecordEntry[](stored.length);\n\n        for (uint256 i = 0; i < stored.length; i++) {\n            result[i] = stored[i];\n        }\n\n        return result;\n    }\n\n    function getLatestRecord(address _user) external view returns (RecordEntry memory) {\n        RecordEntry[] storage stored = _records[_user];\n        require(stored.length > 0, \"No records stored\");\n        return stored[stored.length - 1];\n    }\n\n    function getLatestVersion(address _user) external view returns (uint256) {\n        return _latestVersion[_user];\n    }\n\n    function getRecordCount(address _user) external view returns (uint256) {\n        return _records[_user].length;\n    }\n}\n",
  "sourcePath": "C:\\Users\\Omar  -\\Desktop\\eheath-system\\eheath-system\\truffle-ledger\\contracts\\HealthIntegrityLedger.sol",
  "compiler": {
    "name": "solc",
    "version": "0.8.19+commit.7dd6d404.Emscripten.clang"
  },
  "schemaVersion": "3.4.16",
  "updatedAt": "2026-06-01T10:06:38.717Z",
  "networkType": "ethereum",
  "devdoc": {
    "kind": "dev",
    "methods": {},
    "version": 1
  },
  "userdoc": {
    "kind": "user",
    "methods": {},
    "version": 1
  }
}